{
	"SmartContractWallet.sol": {
		"SmartContractWallet": {
			"abi": [
				{
					"inputs": [],
					"stateMutability": "nonpayable",
					"type": "constructor"
				},
				{
					"inputs": [],
					"name": "addFunds",
					"outputs": [],
					"stateMutability": "payable",
					"type": "function"
				},
				{
					"inputs": [],
					"name": "contractBalance",
					"outputs": [
						{
							"internalType": "uint256",
							"name": "",
							"type": "uint256"
						}
					],
					"stateMutability": "view",
					"type": "function"
				},
				{
					"inputs": [
						{
							"internalType": "address payable",
							"name": "to",
							"type": "address"
						},
						{
							"internalType": "uint256",
							"name": "amount",
							"type": "uint256"
						}
					],
					"name": "transfer",
					"outputs": [],
					"stateMutability": "payable",
					"type": "function"
				},
				{
					"stateMutability": "payable",
					"type": "receive"
				}
			],
			"devdoc": {
				"kind": "dev",
				"methods": {},
				"version": 1
			},
			"evm": {
				"assembly": "    /* \"SmartContractWallet.sol\":58:918  contract SmartContractWallet {... */\n  mstore(0x40, 0x80)\n    /* \"SmartContractWallet.sol\":151:209  constructor() {... */\n  callvalue\n  dup1\n  iszero\n  tag_1\n  jumpi\n  0x00\n  dup1\n  revert\ntag_1:\n  pop\n    /* \"SmartContractWallet.sol\":191:201  msg.sender */\n  caller\n    /* \"SmartContractWallet.sol\":175:180  owner */\n  0x00\n  dup1\n    /* \"SmartContractWallet.sol\":175:202  owner = payable(msg.sender) */\n  0x0100\n  exp\n  dup2\n  sload\n  dup2\n  0xffffffffffffffffffffffffffffffffffffffff\n  mul\n  not\n  and\n  swap1\n  dup4\n  0xffffffffffffffffffffffffffffffffffffffff\n  and\n  mul\n  or\n  swap1\n  sstore\n  pop\n    /* \"SmartContractWallet.sol\":58:918  contract SmartContractWallet {... */\n  dataSize(sub_0)\n  dup1\n  dataOffset(sub_0)\n  0x00\n  codecopy\n  0x00\n  return\nstop\n\nsub_0: assembly {\n        /* \"SmartContractWallet.sol\":58:918  contract SmartContractWallet {... */\n      mstore(0x40, 0x80)\n      jumpi(tag_1, lt(calldatasize, 0x04))\n      shr(0xe0, calldataload(0x00))\n      dup1\n      0x8b7afe2e\n      eq\n      tag_3\n      jumpi\n      dup1\n      0xa26759cb\n      eq\n      tag_4\n      jumpi\n      dup1\n      0xa9059cbb\n      eq\n      tag_5\n      jumpi\n      jump(tag_2)\n    tag_1:\n      jumpi(tag_2, calldatasize)\n      stop\n    tag_2:\n      0x00\n      dup1\n      revert\n        /* \"SmartContractWallet.sol\":382:479  function contractBalance() public view returns(uint){... */\n    tag_3:\n      callvalue\n      dup1\n      iszero\n      tag_8\n      jumpi\n      0x00\n      dup1\n      revert\n    tag_8:\n      pop\n      tag_9\n      tag_10\n      jump\t// in\n    tag_9:\n      mload(0x40)\n      tag_11\n      swap2\n      swap1\n      tag_12\n      jump\t// in\n    tag_11:\n      mload(0x40)\n      dup1\n      swap2\n      sub\n      swap1\n      return\n        /* \"SmartContractWallet.sol\":313:355  function addFunds() payable public {... */\n    tag_4:\n      tag_13\n      tag_14\n      jump\t// in\n    tag_13:\n      stop\n        /* \"SmartContractWallet.sol\":525:915  function transfer (address payable to, uint amount) public payable {... */\n    tag_5:\n      tag_15\n      0x04\n      dup1\n      calldatasize\n      sub\n      dup2\n      add\n      swap1\n      tag_16\n      swap2\n      swap1\n      tag_17\n      jump\t// in\n    tag_16:\n      tag_18\n      jump\t// in\n    tag_15:\n      stop\n        /* \"SmartContractWallet.sol\":382:479  function contractBalance() public view returns(uint){... */\n    tag_10:\n        /* \"SmartContractWallet.sol\":429:433  uint */\n      0x00\n        /* \"SmartContractWallet.sol\":451:472  address(this).balance */\n      selfbalance\n        /* \"SmartContractWallet.sol\":444:472  return address(this).balance */\n      swap1\n      pop\n        /* \"SmartContractWallet.sol\":382:479  function contractBalance() public view returns(uint){... */\n      swap1\n      jump\t// out\n        /* \"SmartContractWallet.sol\":313:355  function addFunds() payable public {... */\n    tag_14:\n      jump\t// out\n        /* \"SmartContractWallet.sol\":525:915  function transfer (address payable to, uint amount) public payable {... */\n    tag_18:\n        /* \"SmartContractWallet.sol\":730:747  contractBalance() */\n      tag_22\n        /* \"SmartContractWallet.sol\":730:745  contractBalance */\n      tag_10\n        /* \"SmartContractWallet.sol\":730:747  contractBalance() */\n      jump\t// in\n    tag_22:\n        /* \"SmartContractWallet.sol\":720:726  amount */\n      dup2\n        /* \"SmartContractWallet.sol\":720:747  amount <= contractBalance() */\n      gt\n      iszero\n        /* \"SmartContractWallet.sol\":711:803  require((amount <= contractBalance()), \"The amount available in the contract is not enough\") */\n      tag_23\n      jumpi\n      mload(0x40)\n      0x08c379a000000000000000000000000000000000000000000000000000000000\n      dup2\n      mstore\n      0x04\n      add\n      tag_24\n      swap1\n      tag_25\n      jump\t// in\n    tag_24:\n      mload(0x40)\n      dup1\n      swap2\n      sub\n      swap1\n      revert\n    tag_23:\n        /* \"SmartContractWallet.sol\":836:841  owner */\n      0x00\n      dup1\n      sload\n      swap1\n      0x0100\n      exp\n      swap1\n      div\n      0xffffffffffffffffffffffffffffffffffffffff\n      and\n        /* \"SmartContractWallet.sol\":822:841  msg.sender == owner */\n      0xffffffffffffffffffffffffffffffffffffffff\n      and\n        /* \"SmartContractWallet.sol\":822:832  msg.sender */\n      caller\n        /* \"SmartContractWallet.sol\":822:841  msg.sender == owner */\n      0xffffffffffffffffffffffffffffffffffffffff\n      and\n      eq\n        /* \"SmartContractWallet.sol\":814:877  require(msg.sender == owner, \"You are not the owner, aborting\") */\n      tag_26\n      jumpi\n      mload(0x40)\n      0x08c379a000000000000000000000000000000000000000000000000000000000\n      dup2\n      mstore\n      0x04\n      add\n      tag_27\n      swap1\n      tag_28\n      jump\t// in\n    tag_27:\n      mload(0x40)\n      dup1\n      swap2\n      sub\n      swap1\n      revert\n    tag_26:\n        /* \"SmartContractWallet.sol\":888:890  to */\n      dup2\n        /* \"SmartContractWallet.sol\":888:899  to.transfer */\n      0xffffffffffffffffffffffffffffffffffffffff\n      and\n        /* \"SmartContractWallet.sol\":888:907  to.transfer(amount) */\n      0x08fc\n        /* \"SmartContractWallet.sol\":900:906  amount */\n      dup3\n        /* \"SmartContractWallet.sol\":888:907  to.transfer(amount) */\n      swap1\n      dup2\n      iszero\n      mul\n      swap1\n      mload(0x40)\n      0x00\n      mload(0x40)\n      dup1\n      dup4\n      sub\n      dup2\n      dup6\n      dup9\n      dup9\n      call\n      swap4\n      pop\n      pop\n      pop\n      pop\n      iszero\n      dup1\n      iszero\n      tag_30\n      jumpi\n      returndatasize\n      0x00\n      dup1\n      returndatacopy\n      revert(0x00, returndatasize)\n    tag_30:\n      pop\n        /* \"SmartContractWallet.sol\":525:915  function transfer (address payable to, uint amount) public payable {... */\n      pop\n      pop\n      jump\t// out\n        /* \"#utility.yul\":7:84   */\n    tag_31:\n        /* \"#utility.yul\":44:51   */\n      0x00\n        /* \"#utility.yul\":73:78   */\n      dup2\n        /* \"#utility.yul\":62:78   */\n      swap1\n      pop\n        /* \"#utility.yul\":7:84   */\n      swap2\n      swap1\n      pop\n      jump\t// out\n        /* \"#utility.yul\":90:208   */\n    tag_32:\n        /* \"#utility.yul\":177:201   */\n      tag_50\n        /* \"#utility.yul\":195:200   */\n      dup2\n        /* \"#utility.yul\":177:201   */\n      tag_31\n      jump\t// in\n    tag_50:\n        /* \"#utility.yul\":172:175   */\n      dup3\n        /* \"#utility.yul\":165:202   */\n      mstore\n        /* \"#utility.yul\":90:208   */\n      pop\n      pop\n      jump\t// out\n        /* \"#utility.yul\":214:436   */\n    tag_12:\n        /* \"#utility.yul\":307:311   */\n      0x00\n        /* \"#utility.yul\":345:347   */\n      0x20\n        /* \"#utility.yul\":334:343   */\n      dup3\n        /* \"#utility.yul\":330:348   */\n      add\n        /* \"#utility.yul\":322:348   */\n      swap1\n      pop\n        /* \"#utility.yul\":358:429   */\n      tag_52\n        /* \"#utility.yul\":426:427   */\n      0x00\n        /* \"#utility.yul\":415:424   */\n      dup4\n        /* \"#utility.yul\":411:428   */\n      add\n        /* \"#utility.yul\":402:408   */\n      dup5\n        /* \"#utility.yul\":358:429   */\n      tag_32\n      jump\t// in\n    tag_52:\n        /* \"#utility.yul\":214:436   */\n      swap3\n      swap2\n      pop\n      pop\n      jump\t// out\n        /* \"#utility.yul\":523:640   */\n    tag_34:\n        /* \"#utility.yul\":632:633   */\n      0x00\n        /* \"#utility.yul\":629:630   */\n      dup1\n        /* \"#utility.yul\":622:634   */\n      revert\n        /* \"#utility.yul\":769:895   */\n    tag_36:\n        /* \"#utility.yul\":806:813   */\n      0x00\n        /* \"#utility.yul\":846:888   */\n      0xffffffffffffffffffffffffffffffffffffffff\n        /* \"#utility.yul\":839:844   */\n      dup3\n        /* \"#utility.yul\":835:889   */\n      and\n        /* \"#utility.yul\":824:889   */\n      swap1\n      pop\n        /* \"#utility.yul\":769:895   */\n      swap2\n      swap1\n      pop\n      jump\t// out\n        /* \"#utility.yul\":901:1005   */\n    tag_37:\n        /* \"#utility.yul\":946:953   */\n      0x00\n        /* \"#utility.yul\":975:999   */\n      tag_58\n        /* \"#utility.yul\":993:998   */\n      dup3\n        /* \"#utility.yul\":975:999   */\n      tag_36\n      jump\t// in\n    tag_58:\n        /* \"#utility.yul\":964:999   */\n      swap1\n      pop\n        /* \"#utility.yul\":901:1005   */\n      swap2\n      swap1\n      pop\n      jump\t// out\n        /* \"#utility.yul\":1011:1149   */\n    tag_38:\n        /* \"#utility.yul\":1092:1124   */\n      tag_60\n        /* \"#utility.yul\":1118:1123   */\n      dup2\n        /* \"#utility.yul\":1092:1124   */\n      tag_37\n      jump\t// in\n    tag_60:\n        /* \"#utility.yul\":1085:1090   */\n      dup2\n        /* \"#utility.yul\":1082:1125   */\n      eq\n        /* \"#utility.yul\":1072:1143   */\n      tag_61\n      jumpi\n        /* \"#utility.yul\":1139:1140   */\n      0x00\n        /* \"#utility.yul\":1136:1137   */\n      dup1\n        /* \"#utility.yul\":1129:1141   */\n      revert\n        /* \"#utility.yul\":1072:1143   */\n    tag_61:\n        /* \"#utility.yul\":1011:1149   */\n      pop\n      jump\t// out\n        /* \"#utility.yul\":1155:1310   */\n    tag_39:\n        /* \"#utility.yul\":1209:1214   */\n      0x00\n        /* \"#utility.yul\":1247:1253   */\n      dup2\n        /* \"#utility.yul\":1234:1254   */\n      calldataload\n        /* \"#utility.yul\":1225:1254   */\n      swap1\n      pop\n        /* \"#utility.yul\":1263:1304   */\n      tag_63\n        /* \"#utility.yul\":1298:1303   */\n      dup2\n        /* \"#utility.yul\":1263:1304   */\n      tag_38\n      jump\t// in\n    tag_63:\n        /* \"#utility.yul\":1155:1310   */\n      swap3\n      swap2\n      pop\n      pop\n      jump\t// out\n        /* \"#utility.yul\":1316:1438   */\n    tag_40:\n        /* \"#utility.yul\":1389:1413   */\n      tag_65\n        /* \"#utility.yul\":1407:1412   */\n      dup2\n        /* \"#utility.yul\":1389:1413   */\n      tag_31\n      jump\t// in\n    tag_65:\n        /* \"#utility.yul\":1382:1387   */\n      dup2\n        /* \"#utility.yul\":1379:1414   */\n      eq\n        /* \"#utility.yul\":1369:1432   */\n      tag_66\n      jumpi\n        /* \"#utility.yul\":1428:1429   */\n      0x00\n        /* \"#utility.yul\":1425:1426   */\n      dup1\n        /* \"#utility.yul\":1418:1430   */\n      revert\n        /* \"#utility.yul\":1369:1432   */\n    tag_66:\n        /* \"#utility.yul\":1316:1438   */\n      pop\n      jump\t// out\n        /* \"#utility.yul\":1444:1583   */\n    tag_41:\n        /* \"#utility.yul\":1490:1495   */\n      0x00\n        /* \"#utility.yul\":1528:1534   */\n      dup2\n        /* \"#utility.yul\":1515:1535   */\n      calldataload\n        /* \"#utility.yul\":1506:1535   */\n      swap1\n      pop\n        /* \"#utility.yul\":1544:1577   */\n      tag_68\n        /* \"#utility.yul\":1571:1576   */\n      dup2\n        /* \"#utility.yul\":1544:1577   */\n      tag_40\n      jump\t// in\n    tag_68:\n        /* \"#utility.yul\":1444:1583   */\n      swap3\n      swap2\n      pop\n      pop\n      jump\t// out\n        /* \"#utility.yul\":1589:2079   */\n    tag_17:\n        /* \"#utility.yul\":1665:1671   */\n      0x00\n        /* \"#utility.yul\":1673:1679   */\n      dup1\n        /* \"#utility.yul\":1722:1724   */\n      0x40\n        /* \"#utility.yul\":1710:1719   */\n      dup4\n        /* \"#utility.yul\":1701:1708   */\n      dup6\n        /* \"#utility.yul\":1697:1720   */\n      sub\n        /* \"#utility.yul\":1693:1725   */\n      slt\n        /* \"#utility.yul\":1690:1809   */\n      iszero\n      tag_70\n      jumpi\n        /* \"#utility.yul\":1728:1807   */\n      tag_71\n      tag_34\n      jump\t// in\n    tag_71:\n        /* \"#utility.yul\":1690:1809   */\n    tag_70:\n        /* \"#utility.yul\":1848:1849   */\n      0x00\n        /* \"#utility.yul\":1873:1934   */\n      tag_72\n        /* \"#utility.yul\":1926:1933   */\n      dup6\n        /* \"#utility.yul\":1917:1923   */\n      dup3\n        /* \"#utility.yul\":1906:1915   */\n      dup7\n        /* \"#utility.yul\":1902:1924   */\n      add\n        /* \"#utility.yul\":1873:1934   */\n      tag_39\n      jump\t// in\n    tag_72:\n        /* \"#utility.yul\":1863:1934   */\n      swap3\n      pop\n        /* \"#utility.yul\":1819:1944   */\n      pop\n        /* \"#utility.yul\":1983:1985   */\n      0x20\n        /* \"#utility.yul\":2009:2062   */\n      tag_73\n        /* \"#utility.yul\":2054:2061   */\n      dup6\n        /* \"#utility.yul\":2045:2051   */\n      dup3\n        /* \"#utility.yul\":2034:2043   */\n      dup7\n        /* \"#utility.yul\":2030:2052   */\n      add\n        /* \"#utility.yul\":2009:2062   */\n      tag_41\n      jump\t// in\n    tag_73:\n        /* \"#utility.yul\":1999:2062   */\n      swap2\n      pop\n        /* \"#utility.yul\":1954:2072   */\n      pop\n        /* \"#utility.yul\":1589:2079   */\n      swap3\n      pop\n      swap3\n      swap1\n      pop\n      jump\t// out\n        /* \"#utility.yul\":2085:2254   */\n    tag_42:\n        /* \"#utility.yul\":2169:2180   */\n      0x00\n        /* \"#utility.yul\":2203:2209   */\n      dup3\n        /* \"#utility.yul\":2198:2201   */\n      dup3\n        /* \"#utility.yul\":2191:2210   */\n      mstore\n        /* \"#utility.yul\":2243:2247   */\n      0x20\n        /* \"#utility.yul\":2238:2241   */\n      dup3\n        /* \"#utility.yul\":2234:2248   */\n      add\n        /* \"#utility.yul\":2219:2248   */\n      swap1\n      pop\n        /* \"#utility.yul\":2085:2254   */\n      swap3\n      swap2\n      pop\n      pop\n      jump\t// out\n        /* \"#utility.yul\":2260:2497   */\n    tag_43:\n        /* \"#utility.yul\":2400:2434   */\n      0x54686520616d6f756e7420617661696c61626c6520696e2074686520636f6e74\n        /* \"#utility.yul\":2396:2397   */\n      0x00\n        /* \"#utility.yul\":2388:2394   */\n      dup3\n        /* \"#utility.yul\":2384:2398   */\n      add\n        /* \"#utility.yul\":2377:2435   */\n      mstore\n        /* \"#utility.yul\":2469:2489   */\n      0x72616374206973206e6f7420656e6f7567680000000000000000000000000000\n        /* \"#utility.yul\":2464:2466   */\n      0x20\n        /* \"#utility.yul\":2456:2462   */\n      dup3\n        /* \"#utility.yul\":2452:2467   */\n      add\n        /* \"#utility.yul\":2445:2490   */\n      mstore\n        /* \"#utility.yul\":2260:2497   */\n      pop\n      jump\t// out\n        /* \"#utility.yul\":2503:2869   */\n    tag_44:\n        /* \"#utility.yul\":2645:2648   */\n      0x00\n        /* \"#utility.yul\":2666:2733   */\n      tag_77\n        /* \"#utility.yul\":2730:2732   */\n      0x32\n        /* \"#utility.yul\":2725:2728   */\n      dup4\n        /* \"#utility.yul\":2666:2733   */\n      tag_42\n      jump\t// in\n    tag_77:\n        /* \"#utility.yul\":2659:2733   */\n      swap2\n      pop\n        /* \"#utility.yul\":2742:2835   */\n      tag_78\n        /* \"#utility.yul\":2831:2834   */\n      dup3\n        /* \"#utility.yul\":2742:2835   */\n      tag_43\n      jump\t// in\n    tag_78:\n        /* \"#utility.yul\":2860:2862   */\n      0x40\n        /* \"#utility.yul\":2855:2858   */\n      dup3\n        /* \"#utility.yul\":2851:2863   */\n      add\n        /* \"#utility.yul\":2844:2863   */\n      swap1\n      pop\n        /* \"#utility.yul\":2503:2869   */\n      swap2\n      swap1\n      pop\n      jump\t// out\n        /* \"#utility.yul\":2875:3294   */\n    tag_25:\n        /* \"#utility.yul\":3041:3045   */\n      0x00\n        /* \"#utility.yul\":3079:3081   */\n      0x20\n        /* \"#utility.yul\":3068:3077   */\n      dup3\n        /* \"#utility.yul\":3064:3082   */\n      add\n        /* \"#utility.yul\":3056:3082   */\n      swap1\n      pop\n        /* \"#utility.yul\":3128:3137   */\n      dup2\n        /* \"#utility.yul\":3122:3126   */\n      dup2\n        /* \"#utility.yul\":3118:3138   */\n      sub\n        /* \"#utility.yul\":3114:3115   */\n      0x00\n        /* \"#utility.yul\":3103:3112   */\n      dup4\n        /* \"#utility.yul\":3099:3116   */\n      add\n        /* \"#utility.yul\":3092:3139   */\n      mstore\n        /* \"#utility.yul\":3156:3287   */\n      tag_80\n        /* \"#utility.yul\":3282:3286   */\n      dup2\n        /* \"#utility.yul\":3156:3287   */\n      tag_44\n      jump\t// in\n    tag_80:\n        /* \"#utility.yul\":3148:3287   */\n      swap1\n      pop\n        /* \"#utility.yul\":2875:3294   */\n      swap2\n      swap1\n      pop\n      jump\t// out\n        /* \"#utility.yul\":3300:3481   */\n    tag_45:\n        /* \"#utility.yul\":3440:3473   */\n      0x596f7520617265206e6f7420746865206f776e65722c2061626f7274696e6700\n        /* \"#utility.yul\":3436:3437   */\n      0x00\n        /* \"#utility.yul\":3428:3434   */\n      dup3\n        /* \"#utility.yul\":3424:3438   */\n      add\n        /* \"#utility.yul\":3417:3474   */\n      mstore\n        /* \"#utility.yul\":3300:3481   */\n      pop\n      jump\t// out\n        /* \"#utility.yul\":3487:3853   */\n    tag_46:\n        /* \"#utility.yul\":3629:3632   */\n      0x00\n        /* \"#utility.yul\":3650:3717   */\n      tag_83\n        /* \"#utility.yul\":3714:3716   */\n      0x1f\n        /* \"#utility.yul\":3709:3712   */\n      dup4\n        /* \"#utility.yul\":3650:3717   */\n      tag_42\n      jump\t// in\n    tag_83:\n        /* \"#utility.yul\":3643:3717   */\n      swap2\n      pop\n        /* \"#utility.yul\":3726:3819   */\n      tag_84\n        /* \"#utility.yul\":3815:3818   */\n      dup3\n        /* \"#utility.yul\":3726:3819   */\n      tag_45\n      jump\t// in\n    tag_84:\n        /* \"#utility.yul\":3844:3846   */\n      0x20\n        /* \"#utility.yul\":3839:3842   */\n      dup3\n        /* \"#utility.yul\":3835:3847   */\n      add\n        /* \"#utility.yul\":3828:3847   */\n      swap1\n      pop\n        /* \"#utility.yul\":3487:3853   */\n      swap2\n      swap1\n      pop\n      jump\t// out\n        /* \"#utility.yul\":3859:4278   */\n    tag_28:\n        /* \"#utility.yul\":4025:4029   */\n      0x00\n        /* \"#utility.yul\":4063:4065   */\n      0x20\n        /* \"#utility.yul\":4052:4061   */\n      dup3\n        /* \"#utility.yul\":4048:4066   */\n      add\n        /* \"#utility.yul\":4040:4066   */\n      swap1\n      pop\n        /* \"#utility.yul\":4112:4121   */\n      dup2\n        /* \"#utility.yul\":4106:4110   */\n      dup2\n        /* \"#utility.yul\":4102:4122   */\n      sub\n        /* \"#utility.yul\":4098:4099   */\n      0x00\n        /* \"#utility.yul\":4087:4096   */\n      dup4\n        /* \"#utility.yul\":4083:4100   */\n      add\n        /* \"#utility.yul\":4076:4123   */\n      mstore\n        /* \"#utility.yul\":4140:4271   */\n      tag_86\n        /* \"#utility.yul\":4266:4270   */\n      dup2\n        /* \"#utility.yul\":4140:4271   */\n      tag_46\n      jump\t// in\n    tag_86:\n        /* \"#utility.yul\":4132:4271   */\n      swap1\n      pop\n        /* \"#utility.yul\":3859:4278   */\n      swap2\n      swap1\n      pop\n      jump\t// out\n\n    auxdata: 0xa2646970667358221220a778ae4adf72f825463e6997315e74404f84cf40a78b834b5b8837898b3bbbe564736f6c63430008100033\n}\n",
				"bytecode": {
					"linkReferences": {},
					"object": "608060405234801561001057600080fd5b50336000806101000a81548173ffffffffffffffffffffffffffffffffffffffff021916908373ffffffffffffffffffffffffffffffffffffffff16021790555061040a806100606000396000f3fe6080604052600436106100385760003560e01c80638b7afe2e14610044578063a26759cb1461006f578063a9059cbb146100795761003f565b3661003f57005b600080fd5b34801561005057600080fd5b50610059610095565b60405161006691906101db565b60405180910390f35b61007761009d565b005b610093600480360381019061008e9190610285565b61009f565b005b600047905090565b565b6100a7610095565b8111156100e9576040517f08c379a00000000000000000000000000000000000000000000000000000000081526004016100e090610348565b60405180910390fd5b60008054906101000a900473ffffffffffffffffffffffffffffffffffffffff1673ffffffffffffffffffffffffffffffffffffffff163373ffffffffffffffffffffffffffffffffffffffff1614610177576040517f08c379a000000000000000000000000000000000000000000000000000000000815260040161016e906103b4565b60405180910390fd5b8173ffffffffffffffffffffffffffffffffffffffff166108fc829081150290604051600060405180830381858888f193505050501580156101bd573d6000803e3d6000fd5b505050565b6000819050919050565b6101d5816101c2565b82525050565b60006020820190506101f060008301846101cc565b92915050565b600080fd5b600073ffffffffffffffffffffffffffffffffffffffff82169050919050565b6000610226826101fb565b9050919050565b6102368161021b565b811461024157600080fd5b50565b6000813590506102538161022d565b92915050565b610262816101c2565b811461026d57600080fd5b50565b60008135905061027f81610259565b92915050565b6000806040838503121561029c5761029b6101f6565b5b60006102aa85828601610244565b92505060206102bb85828601610270565b9150509250929050565b600082825260208201905092915050565b7f54686520616d6f756e7420617661696c61626c6520696e2074686520636f6e7460008201527f72616374206973206e6f7420656e6f7567680000000000000000000000000000602082015250565b60006103326032836102c5565b915061033d826102d6565b604082019050919050565b6000602082019050818103600083015261036181610325565b9050919050565b7f596f7520617265206e6f7420746865206f776e65722c2061626f7274696e6700600082015250565b600061039e601f836102c5565b91506103a982610368565b602082019050919050565b600060208201905081810360008301526103cd81610391565b905091905056fea2646970667358221220a778ae4adf72f825463e6997315e74404f84cf40a78b834b5b8837898b3bbbe564736f6c63430008100033",
					"opcodes": "PUSH1 0x80 PUSH1 0x40 MSTORE CALLVALUE DUP1 ISZERO PUSH2 0x10 JUMPI PUSH1 0x0 DUP1 REVERT JUMPDEST POP CALLER PUSH1 0x0 DUP1 PUSH2 0x100 EXP DUP2 SLOAD DUP2 PUSH20 0xFFFFFFFFFFFFFFFFFFFFFFFFFFFFFFFFFFFFFFFF MUL NOT AND SWAP1 DUP4 PUSH20 0xFFFFFFFFFFFFFFFFFFFFFFFFFFFFFFFFFFFFFFFF AND MUL OR SWAP1 SSTORE POP PUSH2 0x40A DUP1 PUSH2 0x60 PUSH1 0x0 CODECOPY PUSH1 0x0 RETURN INVALID PUSH1 0x80 PUSH1 0x40 MSTORE PUSH1 0x4 CALLDATASIZE LT PUSH2 0x38 JUMPI PUSH1 0x0 CALLDATALOAD PUSH1 0xE0 SHR DUP1 PUSH4 0x8B7AFE2E EQ PUSH2 0x44 JUMPI DUP1 PUSH4 0xA26759CB EQ PUSH2 0x6F JUMPI DUP1 PUSH4 0xA9059CBB EQ PUSH2 0x79 JUMPI PUSH2 0x3F JUMP JUMPDEST CALLDATASIZE PUSH2 0x3F JUMPI STOP JUMPDEST PUSH1 0x0 DUP1 REVERT JUMPDEST CALLVALUE DUP1 ISZERO PUSH2 0x50 JUMPI PUSH1 0x0 DUP1 REVERT JUMPDEST POP PUSH2 0x59 PUSH2 0x95 JUMP JUMPDEST PUSH1 0x40 MLOAD PUSH2 0x66 SWAP2 SWAP1 PUSH2 0x1DB JUMP JUMPDEST PUSH1 0x40 MLOAD DUP1 SWAP2 SUB SWAP1 RETURN JUMPDEST PUSH2 0x77 PUSH2 0x9D JUMP JUMPDEST STOP JUMPDEST PUSH2 0x93 PUSH1 0x4 DUP1 CALLDATASIZE SUB DUP2 ADD SWAP1 PUSH2 0x8E SWAP2 SWAP1 PUSH2 0x285 JUMP JUMPDEST PUSH2 0x9F JUMP JUMPDEST STOP JUMPDEST PUSH1 0x0 SELFBALANCE SWAP1 POP SWAP1 JUMP JUMPDEST JUMP JUMPDEST PUSH2 0xA7 PUSH2 0x95 JUMP JUMPDEST DUP2 GT ISZERO PUSH2 0xE9 JUMPI PUSH1 0x40 MLOAD PUSH32 0x8C379A000000000000000000000000000000000000000000000000000000000 DUP2 MSTORE PUSH1 0x4 ADD PUSH2 0xE0 SWAP1 PUSH2 0x348 JUMP JUMPDEST PUSH1 0x40 MLOAD DUP1 SWAP2 SUB SWAP1 REVERT JUMPDEST PUSH1 0x0 DUP1 SLOAD SWAP1 PUSH2 0x100 EXP SWAP1 DIV PUSH20 0xFFFFFFFFFFFFFFFFFFFFFFFFFFFFFFFFFFFFFFFF AND PUSH20 0xFFFFFFFFFFFFFFFFFFFFFFFFFFFFFFFFFFFFFFFF AND CALLER PUSH20 0xFFFFFFFFFFFFFFFFFFFFFFFFFFFFFFFFFFFFFFFF AND EQ PUSH2 0x177 JUMPI PUSH1 0x40 MLOAD PUSH32 0x8C379A000000000000000000000000000000000000000000000000000000000 DUP2 MSTORE PUSH1 0x4 ADD PUSH2 0x16E SWAP1 PUSH2 0x3B4 JUMP JUMPDEST PUSH1 0x40 MLOAD DUP1 SWAP2 SUB SWAP1 REVERT JUMPDEST DUP2 PUSH20 0xFFFFFFFFFFFFFFFFFFFFFFFFFFFFFFFFFFFFFFFF AND PUSH2 0x8FC DUP3 SWAP1 DUP2 ISZERO MUL SWAP1 PUSH1 0x40 MLOAD PUSH1 0x0 PUSH1 0x40 MLOAD DUP1 DUP4 SUB DUP2 DUP6 DUP9 DUP9 CALL SWAP4 POP POP POP POP ISZERO DUP1 ISZERO PUSH2 0x1BD JUMPI RETURNDATASIZE PUSH1 0x0 DUP1 RETURNDATACOPY RETURNDATASIZE PUSH1 0x0 REVERT JUMPDEST POP POP POP JUMP JUMPDEST PUSH1 0x0 DUP2 SWAP1 POP SWAP2 SWAP1 POP JUMP JUMPDEST PUSH2 0x1D5 DUP2 PUSH2 0x1C2 JUMP JUMPDEST DUP3 MSTORE POP POP JUMP JUMPDEST PUSH1 0x0 PUSH1 0x20 DUP3 ADD SWAP1 POP PUSH2 0x1F0 PUSH1 0x0 DUP4 ADD DUP5 PUSH2 0x1CC JUMP JUMPDEST SWAP3 SWAP2 POP POP JUMP JUMPDEST PUSH1 0x0 DUP1 REVERT JUMPDEST PUSH1 0x0 PUSH20 0xFFFFFFFFFFFFFFFFFFFFFFFFFFFFFFFFFFFFFFFF DUP3 AND SWAP1 POP SWAP2 SWAP1 POP JUMP JUMPDEST PUSH1 0x0 PUSH2 0x226 DUP3 PUSH2 0x1FB JUMP JUMPDEST SWAP1 POP SWAP2 SWAP1 POP JUMP JUMPDEST PUSH2 0x236 DUP2 PUSH2 0x21B JUMP JUMPDEST DUP2 EQ PUSH2 0x241 JUMPI PUSH1 0x0 DUP1 REVERT JUMPDEST POP JUMP JUMPDEST PUSH1 0x0 DUP2 CALLDATALOAD SWAP1 POP PUSH2 0x253 DUP2 PUSH2 0x22D JUMP JUMPDEST SWAP3 SWAP2 POP POP JUMP JUMPDEST PUSH2 0x262 DUP2 PUSH2 0x1C2 JUMP JUMPDEST DUP2 EQ PUSH2 0x26D JUMPI PUSH1 0x0 DUP1 REVERT JUMPDEST POP JUMP JUMPDEST PUSH1 0x0 DUP2 CALLDATALOAD SWAP1 POP PUSH2 0x27F DUP2 PUSH2 0x259 JUMP JUMPDEST SWAP3 SWAP2 POP POP JUMP JUMPDEST PUSH1 0x0 DUP1 PUSH1 0x40 DUP4 DUP6 SUB SLT ISZERO PUSH2 0x29C JUMPI PUSH2 0x29B PUSH2 0x1F6 JUMP JUMPDEST JUMPDEST PUSH1 0x0 PUSH2 0x2AA DUP6 DUP3 DUP7 ADD PUSH2 0x244 JUMP JUMPDEST SWAP3 POP POP PUSH1 0x20 PUSH2 0x2BB DUP6 DUP3 DUP7 ADD PUSH2 0x270 JUMP JUMPDEST SWAP2 POP POP SWAP3 POP SWAP3 SWAP1 POP JUMP JUMPDEST PUSH1 0x0 DUP3 DUP3 MSTORE PUSH1 0x20 DUP3 ADD SWAP1 POP SWAP3 SWAP2 POP POP JUMP JUMPDEST PUSH32 0x54686520616D6F756E7420617661696C61626C6520696E2074686520636F6E74 PUSH1 0x0 DUP3 ADD MSTORE PUSH32 0x72616374206973206E6F7420656E6F7567680000000000000000000000000000 PUSH1 0x20 DUP3 ADD MSTORE POP JUMP JUMPDEST PUSH1 0x0 PUSH2 0x332 PUSH1 0x32 DUP4 PUSH2 0x2C5 JUMP JUMPDEST SWAP2 POP PUSH2 0x33D DUP3 PUSH2 0x2D6 JUMP JUMPDEST PUSH1 0x40 DUP3 ADD SWAP1 POP SWAP2 SWAP1 POP JUMP JUMPDEST PUSH1 0x0 PUSH1 0x20 DUP3 ADD SWAP1 POP DUP2 DUP2 SUB PUSH1 0x0 DUP4 ADD MSTORE PUSH2 0x361 DUP2 PUSH2 0x325 JUMP JUMPDEST SWAP1 POP SWAP2 SWAP1 POP JUMP JUMPDEST PUSH32 0x596F7520617265206E6F7420746865206F776E65722C2061626F7274696E6700 PUSH1 0x0 DUP3 ADD MSTORE POP JUMP JUMPDEST PUSH1 0x0 PUSH2 0x39E PUSH1 0x1F DUP4 PUSH2 0x2C5 JUMP JUMPDEST SWAP2 POP PUSH2 0x3A9 DUP3 PUSH2 0x368 JUMP JUMPDEST PUSH1 0x20 DUP3 ADD SWAP1 POP SWAP2 SWAP1 POP JUMP JUMPDEST PUSH1 0x0 PUSH1 0x20 DUP3 ADD SWAP1 POP DUP2 DUP2 SUB PUSH1 0x0 DUP4 ADD MSTORE PUSH2 0x3CD DUP2 PUSH2 0x391 JUMP JUMPDEST SWAP1 POP SWAP2 SWAP1 POP JUMP INVALID LOG2 PUSH5 0x6970667358 0x22 SLT KECCAK256 0xA7 PUSH25 0xAE4ADF72F825463E6997315E74404F84CF40A78B834B5B8837 DUP10 DUP12 EXTCODESIZE 0xBB 0xE5 PUSH5 0x736F6C6343 STOP ADDMOD LT STOP CALLER "
				},
				"gasEstimates": {
					"creation": {
						"codeDepositCost": "206800",
						"executionCost": "24517",
						"totalCost": "231317"
					},
					"external": {
						"addFunds()": "120",
						"contractBalance()": "317",
						"transfer(address,uint256)": "infinite"
					}
				},
				"methodIdentifiers": {
					"addFunds()": "a26759cb",
					"contractBalance()": "8b7afe2e",
					"transfer(address,uint256)": "a9059cbb"
				}
			},
			"storageLayout": {
				"storage": [
					{
						"astId": 3,
						"contract": "SmartContractWallet.sol:SmartContractWallet",
						"label": "owner",
						"offset": 0,
						"slot": "0",
						"type": "t_address_payable"
					}
				],
				"types": {
					"t_address_payable": {
						"encoding": "inplace",
						"label": "address payable",
						"numberOfBytes": "20"
					}
				}
			},
			"userdoc": {
				"kind": "user",
				"methods": {},
				"version": 1
			}
		}
	}
}